{
  "abi": [
    {
      "type": "constructor",
      "inputs": [],
      "stateMutability": "nonpayable"
    },
    {
      "type": "function",
      "name": "addApart",
      "inputs": [
        {
          "name": "condoId",
          "type": "uint256",
          "internalType": "uint256"
        },
        {
          "name": "floorNumber",
          "type": "uint256",
          "internalType": "uint256"
        },
        {
          "name": "apartmentNumber",
          "type": "uint256",
          "internalType": "uint256"
        }
      ],
      "outputs": [
        {
          "name": "apartId",
          "type": "uint256",
          "internalType": "uint256"
        }
      ],
      "stateMutability": "payable"
    },
    {
      "type": "function",
      "name": "addCondo",
      "inputs": [
        {
          "name": "tokenAddress",
          "type": "address",
          "internalType": "address"
        },
        {
          "name": "timelock",
          "type": "address",
          "internalType": "address"
        },
        {
          "name": "governor",
          "type": "address",
          "internalType": "address"
        },
        {
          "name": "valut",
          "type": "address",
          "internalType": "address"
        }
      ],
      "outputs": [
        {
          "name": "condoId",
          "type": "uint256",
          "internalType": "uint256"
        }
      ],
      "stateMutability": "nonpayable"
    },
    {
      "type": "function",
      "name": "addRating",
      "inputs": [
        {
          "name": "ratedUserId",
          "type": "uint256",
          "internalType": "uint256"
        },
        {
          "name": "isPositive",
          "type": "bool",
          "internalType": "bool"
        },
        {
          "name": "comment",
          "type": "string",
          "internalType": "string"
        }
      ],
      "outputs": [
        {
          "name": "ratingId",
          "type": "uint256",
          "internalType": "uint256"
        }
      ],
      "stateMutability": "nonpayable"
    },
    {
      "type": "function",
      "name": "addRent",
      "inputs": [
        {
          "name": "shareId",
          "type": "uint256",
          "internalType": "uint256"
        }
      ],
      "outputs": [
        {
          "name": "rentId",
          "type": "uint256",
          "internalType": "uint256"
        }
      ],
      "stateMutability": "payable"
    },
    {
      "type": "function",
      "name": "addShare",
      "inputs": [
        {
          "name": "pricePerBlock",
          "type": "uint256",
          "internalType": "uint256"
        },
        {
          "name": "tokenId",
          "type": "uint256",
          "internalType": "uint256"
        }
      ],
      "outputs": [
        {
          "name": "shareId",
          "type": "uint256",
          "internalType": "uint256"
        }
      ],
      "stateMutability": "nonpayable"
    },
    {
      "type": "function",
      "name": "addUser",
      "inputs": [
        {
          "name": "name",
          "type": "string",
          "internalType": "string"
        },
        {
          "name": "description",
          "type": "string",
          "internalType": "string"
        },
        {
          "name": "image",
          "type": "string",
          "internalType": "string"
        }
      ],
      "outputs": [
        {
          "name": "",
          "type": "uint256",
          "internalType": "uint256"
        }
      ],
      "stateMutability": "nonpayable"
    },
    {
      "type": "function",
      "name": "addressToId",
      "inputs": [
        {
          "name": "userAddress",
          "type": "address",
          "internalType": "address"
        }
      ],
      "outputs": [
        {
          "name": "userId",
          "type": "uint256",
          "internalType": "uint256"
        }
      ],
      "stateMutability": "view"
    },
    {
      "type": "function",
      "name": "getApart",
      "inputs": [
        {
          "name": "apartId",
          "type": "uint256",
          "internalType": "uint256"
        }
      ],
      "outputs": [
        {
          "name": "",
          "type": "tuple",
          "internalType": "struct CondoStructs.Apart",
          "components": [
            {
              "name": "userId",
              "type": "uint256",
              "internalType": "uint256"
            },
            {
              "name": "tokenId",
              "type": "uint256",
              "internalType": "uint256"
            },
            {
              "name": "floorNumber",
              "type": "uint256",
              "internalType": "uint256"
            },
            {
              "name": "apartmentNumber",
              "type": "uint256",
              "internalType": "uint256"
            },
            {
              "name": "price",
              "type": "uint256",
              "internalType": "uint256"
            },
            {
              "name": "createdAt",
              "type": "uint256",
              "internalType": "uint256"
            },
            {
              "name": "updatedAt",
              "type": "uint256",
              "internalType": "uint256"
            }
          ]
        }
      ],
      "stateMutability": "view"
    },
    {
      "type": "function",
      "name": "getApartByToken",
      "inputs": [
        {
          "name": "tokenId",
          "type": "uint256",
          "internalType": "uint256"
        }
      ],
      "outputs": [
        {
          "name": "",
          "type": "tuple",
          "internalType": "struct CondoStructs.Apart",
          "components": [
            {
              "name": "userId",
              "type": "uint256",
              "internalType": "uint256"
            },
            {
              "name": "tokenId",
              "type": "uint256",
              "internalType": "uint256"
            },
            {
              "name": "floorNumber",
              "type": "uint256",
              "internalType": "uint256"
            },
            {
              "name": "apartmentNumber",
              "type": "uint256",
              "internalType": "uint256"
            },
            {
              "name": "price",
              "type": "uint256",
              "internalType": "uint256"
            },
            {
              "name": "createdAt",
              "type": "uint256",
              "internalType": "uint256"
            },
            {
              "name": "updatedAt",
              "type": "uint256",
              "internalType": "uint256"
            }
          ]
        }
      ],
      "stateMutability": "view"
    },
    {
      "type": "function",
      "name": "getCondo",
      "inputs": [
        {
          "name": "condoId",
          "type": "uint256",
          "internalType": "uint256"
        }
      ],
      "outputs": [
        {
          "name": "",
          "type": "tuple",
          "internalType": "struct CondoStructs.Condo",
          "components": [
            {
              "name": "userId",
              "type": "uint256",
              "internalType": "uint256"
            },
            {
              "name": "tokenAddress",
              "type": "address",
              "internalType": "address"
            },
            {
              "name": "timelock",
              "type": "address",
              "internalType": "address"
            },
            {
              "name": "governor",
              "type": "address",
              "internalType": "address"
            },
            {
              "name": "vault",
              "type": "address",
              "internalType": "address"
            },
            {
              "name": "status",
              "type": "uint8",
              "internalType": "enum CondoEnums.Status"
            },
            {
              "name": "createdAt",
              "type": "uint256",
              "internalType": "uint256"
            },
            {
              "name": "updatedAt",
              "type": "uint256",
              "internalType": "uint256"
            }
          ]
        }
      ],
      "stateMutability": "view"
    },
    {
      "type": "function",
      "name": "getCondoByToken",
      "inputs": [
        {
          "name": "tokenId",
          "type": "uint256",
          "internalType": "uint256"
        }
      ],
      "outputs": [
        {
          "name": "",
          "type": "tuple",
          "internalType": "struct CondoStructs.Condo",
          "components": [
            {
              "name": "userId",
              "type": "uint256",
              "internalType": "uint256"
            },
            {
              "name": "tokenAddress",
              "type": "address",
              "internalType": "address"
            },
            {
              "name": "timelock",
              "type": "address",
              "internalType": "address"
            },
            {
              "name": "governor",
              "type": "address",
              "internalType": "address"
            },
            {
              "name": "vault",
              "type": "address",
              "internalType": "address"
            },
            {
              "name": "status",
              "type": "uint8",
              "internalType": "enum CondoEnums.Status"
            },
            {
              "name": "createdAt",
              "type": "uint256",
              "internalType": "uint256"
            },
            {
              "name": "updatedAt",
              "type": "uint256",
              "internalType": "uint256"
            }
          ]
        }
      ],
      "stateMutability": "view"
    },
    {
      "type": "function",
      "name": "getRating",
      "inputs": [
        {
          "name": "ratingId",
          "type": "uint256",
          "internalType": "uint256"
        }
      ],
      "outputs": [
        {
          "name": "",
          "type": "tuple",
          "internalType": "struct CondoStructs.Rating",
          "components": [
            {
              "name": "ratedUserId",
              "type": "uint256",
              "internalType": "uint256"
            },
            {
              "name": "raterUserId",
              "type": "uint256",
              "internalType": "uint256"
            },
            {
              "name": "isPositive",
              "type": "bool",
              "internalType": "bool"
            },
            {
              "name": "comment",
              "type": "string",
              "internalType": "string"
            },
            {
              "name": "createdAt",
              "type": "uint256",
              "internalType": "uint256"
            },
            {
              "name": "updatedAt",
              "type": "uint256",
              "internalType": "uint256"
            }
          ]
        }
      ],
      "stateMutability": "view"
    },
    {
      "type": "function",
      "name": "getRent",
      "inputs": [
        {
          "name": "rentId",
          "type": "uint256",
          "internalType": "uint256"
        }
      ],
      "outputs": [
        {
          "name": "",
          "type": "tuple",
          "internalType": "struct CondoStructs.Rent",
          "components": [
            {
              "name": "userId",
              "type": "uint256",
              "internalType": "uint256"
            },
            {
              "name": "shareId",
              "type": "uint256",
              "internalType": "uint256"
            },
            {
              "name": "balance",
              "type": "uint256",
              "internalType": "uint256"
            },
            {
              "name": "createdAt",
              "type": "uint256",
              "internalType": "uint256"
            },
            {
              "name": "updatedAt",
              "type": "uint256",
              "internalType": "uint256"
            }
          ]
        }
      ],
      "stateMutability": "view"
    },
    {
      "type": "function",
      "name": "getShare",
      "inputs": [
        {
          "name": "shareId",
          "type": "uint256",
          "internalType": "uint256"
        }
      ],
      "outputs": [
        {
          "name": "",
          "type": "tuple",
          "internalType": "struct CondoStructs.Share",
          "components": [
            {
              "name": "tokenId",
              "type": "uint256",
              "internalType": "uint256"
            },
            {
              "name": "userId",
              "type": "uint256",
              "internalType": "uint256"
            },
            {
              "name": "pricePerBlock",
              "type": "uint256",
              "internalType": "uint256"
            },
            {
              "name": "isActive",
              "type": "bool",
              "internalType": "bool"
            },
            {
              "name": "createdAt",
              "type": "uint256",
              "internalType": "uint256"
            },
            {
              "name": "updatedAt",
              "type": "uint256",
              "internalType": "uint256"
            }
          ]
        }
      ],
      "stateMutability": "view"
    },
    {
      "type": "function",
      "name": "getUser",
      "inputs": [
        {
          "name": "userId",
          "type": "uint256",
          "internalType": "uint256"
        }
      ],
      "outputs": [
        {
          "name": "",
          "type": "tuple",
          "internalType": "struct CondoStructs.User",
          "components": [
            {
              "name": "wallet",
              "type": "address",
              "internalType": "address"
            },
            {
              "name": "name",
              "type": "string",
              "internalType": "string"
            },
            {
              "name": "description",
              "type": "string",
              "internalType": "string"
            },
            {
              "name": "image",
              "type": "string",
              "internalType": "string"
            },
            {
              "name": "createdAt",
              "type": "uint256",
              "internalType": "uint256"
            },
            {
              "name": "updatedAt",
              "type": "uint256",
              "internalType": "uint256"
            }
          ]
        }
      ],
      "stateMutability": "view"
    },
    {
      "type": "function",
      "name": "getUserByAddress",
      "inputs": [
        {
          "name": "userAddress",
          "type": "address",
          "internalType": "address"
        }
      ],
      "outputs": [
        {
          "name": "",
          "type": "tuple",
          "internalType": "struct CondoStructs.User",
          "components": [
            {
              "name": "wallet",
              "type": "address",
              "internalType": "address"
            },
            {
              "name": "name",
              "type": "string",
              "internalType": "string"
            },
            {
              "name": "description",
              "type": "string",
              "internalType": "string"
            },
            {
              "name": "image",
              "type": "string",
              "internalType": "string"
            },
            {
              "name": "createdAt",
              "type": "uint256",
              "internalType": "uint256"
            },
            {
              "name": "updatedAt",
              "type": "uint256",
              "internalType": "uint256"
            }
          ]
        }
      ],
      "stateMutability": "view"
    },
    {
      "type": "function",
      "name": "nextApartId",
      "inputs": [],
      "outputs": [
        {
          "name": "",
          "type": "uint256",
          "internalType": "uint256"
        }
      ],
      "stateMutability": "view"
    },
    {
      "type": "function",
      "name": "nextCondoId",
      "inputs": [],
      "outputs": [
        {
          "name": "",
          "type": "uint256",
          "internalType": "uint256"
        }
      ],
      "stateMutability": "view"
    },
    {
      "type": "function",
      "name": "nextRatingId",
      "inputs": [],
      "outputs": [
        {
          "name": "",
          "type": "uint256",
          "internalType": "uint256"
        }
      ],
      "stateMutability": "view"
    },
    {
      "type": "function",
      "name": "nextRentId",
      "inputs": [],
      "outputs": [
        {
          "name": "",
          "type": "uint256",
          "internalType": "uint256"
        }
      ],
      "stateMutability": "view"
    },
    {
      "type": "function",
      "name": "nextShareId",
      "inputs": [],
      "outputs": [
        {
          "name": "",
          "type": "uint256",
          "internalType": "uint256"
        }
      ],
      "stateMutability": "view"
    },
    {
      "type": "function",
      "name": "nextUserId",
      "inputs": [],
      "outputs": [
        {
          "name": "",
          "type": "uint256",
          "internalType": "uint256"
        }
      ],
      "stateMutability": "view"
    },
    {
      "type": "function",
      "name": "updCondo",
      "inputs": [
        {
          "name": "condoId",
          "type": "uint256",
          "internalType": "uint256"
        },
        {
          "name": "status",
          "type": "uint8",
          "internalType": "enum CondoEnums.Status"
        }
      ],
      "outputs": [],
      "stateMutability": "nonpayable"
    },
    {
      "type": "function",
      "name": "updRating",
      "inputs": [
        {
          "name": "ratingId",
          "type": "uint256",
          "internalType": "uint256"
        },
        {
          "name": "isPositive",
          "type": "bool",
          "internalType": "bool"
        },
        {
          "name": "comment",
          "type": "string",
          "internalType": "string"
        }
      ],
      "outputs": [],
      "stateMutability": "nonpayable"
    },
    {
      "type": "function",
      "name": "updRent",
      "inputs": [
        {
          "name": "rentId",
          "type": "uint256",
          "internalType": "uint256"
        }
      ],
      "outputs": [],
      "stateMutability": "payable"
    },
    {
      "type": "function",
      "name": "updShare",
      "inputs": [
        {
          "name": "shareId",
          "type": "uint256",
          "internalType": "uint256"
        },
        {
          "name": "pricePerBlock",
          "type": "uint256",
          "internalType": "uint256"
        },
        {
          "name": "isActive",
          "type": "bool",
          "internalType": "bool"
        }
      ],
      "outputs": [],
      "stateMutability": "nonpayable"
    },
    {
      "type": "function",
      "name": "updUser",
      "inputs": [
        {
          "name": "name",
          "type": "string",
          "internalType": "string"
        },
        {
          "name": "description",
          "type": "string",
          "internalType": "string"
        },
        {
          "name": "image",
          "type": "string",
          "internalType": "string"
        }
      ],
      "outputs": [
        {
          "name": "userId",
          "type": "uint256",
          "internalType": "uint256"
        }
      ],
      "stateMutability": "nonpayable"
    },
    {
      "type": "event",
      "name": "ApartAdded",
      "inputs": [
        {
          "name": "apartId",
          "type": "uint256",
          "indexed": true,
          "internalType": "uint256"
        },
        {
          "name": "buyerId",
          "type": "uint256",
          "indexed": true,
          "internalType": "uint256"
        },
        {
          "name": "condoId",
          "type": "uint256",
          "indexed": true,
          "internalType": "uint256"
        },
        {
          "name": "tokenId",
          "type": "uint256",
          "indexed": false,
          "internalType": "uint256"
        },
        {
          "name": "floorNumber",
          "type": "uint256",
          "indexed": false,
          "internalType": "uint256"
        },
        {
          "name": "apartmentNumber",
          "type": "uint256",
          "indexed": false,
          "internalType": "uint256"
        },
        {
          "name": "price",
          "type": "uint256",
          "indexed": false,
          "internalType": "uint256"
        }
      ],
      "anonymous": false
    },
    {
      "type": "event",
      "name": "CondoAdded",
      "inputs": [
        {
          "name": "condoId",
          "type": "uint256",
          "indexed": true,
          "internalType": "uint256"
        },
        {
          "name": "creatorId",
          "type": "uint256",
          "indexed": true,
          "internalType": "uint256"
        },
        {
          "name": "tokenAddress",
          "type": "address",
          "indexed": true,
          "internalType": "address"
        },
        {
          "name": "timelock",
          "type": "address",
          "indexed": false,
          "internalType": "address"
        },
        {
          "name": "governor",
          "type": "address",
          "indexed": false,
          "internalType": "address"
        },
        {
          "name": "vault",
          "type": "address",
          "indexed": false,
          "internalType": "address"
        }
      ],
      "anonymous": false
    },
    {
      "type": "event",
      "name": "CondoUpdated",
      "inputs": [
        {
          "name": "condoId",
          "type": "uint256",
          "indexed": true,
          "internalType": "uint256"
        },
        {
          "name": "status",
          "type": "uint8",
          "indexed": true,
          "internalType": "enum CondoEnums.Status"
        }
      ],
      "anonymous": false
    },
    {
      "type": "event",
      "name": "RatingAdded",
      "inputs": [
        {
          "name": "ratingId",
          "type": "uint256",
          "indexed": true,
          "internalType": "uint256"
        },
        {
          "name": "ratedUserId",
          "type": "uint256",
          "indexed": true,
          "internalType": "uint256"
        },
        {
          "name": "raterUserId",
          "type": "uint256",
          "indexed": true,
          "internalType": "uint256"
        },
        {
          "name": "isPositive",
          "type": "bool",
          "indexed": false,
          "internalType": "bool"
        },
        {
          "name": "comment",
          "type": "string",
          "indexed": false,
          "internalType": "string"
        }
      ],
      "anonymous": false
    },
    {
      "type": "event",
      "name": "RatingUpdated",
      "inputs": [
        {
          "name": "ratingId",
          "type": "uint256",
          "indexed": true,
          "internalType": "uint256"
        },
        {
          "name": "isPositive",
          "type": "bool",
          "indexed": false,
          "internalType": "bool"
        },
        {
          "name": "comment",
          "type": "string",
          "indexed": false,
          "internalType": "string"
        }
      ],
      "anonymous": false
    },
    {
      "type": "event",
      "name": "RentAdded",
      "inputs": [
        {
          "name": "rentId",
          "type": "uint256",
          "indexed": true,
          "internalType": "uint256"
        },
        {
          "name": "shareId",
          "type": "uint256",
          "indexed": true,
          "internalType": "uint256"
        },
        {
          "name": "renterId",
          "type": "uint256",
          "indexed": true,
          "internalType": "uint256"
        },
        {
          "name": "balance",
          "type": "uint256",
          "indexed": false,
          "internalType": "uint256"
        }
      ],
      "anonymous": false
    },
    {
      "type": "event",
      "name": "RentUpdated",
      "inputs": [
        {
          "name": "rentId",
          "type": "uint256",
          "indexed": true,
          "internalType": "uint256"
        },
        {
          "name": "balance",
          "type": "uint256",
          "indexed": true,
          "internalType": "uint256"
        }
      ],
      "anonymous": false
    },
    {
      "type": "event",
      "name": "ShareAdded",
      "inputs": [
        {
          "name": "shareId",
          "type": "uint256",
          "indexed": true,
          "internalType": "uint256"
        },
        {
          "name": "tokenId",
          "type": "uint256",
          "indexed": true,
          "internalType": "uint256"
        },
        {
          "name": "renterId",
          "type": "uint256",
          "indexed": true,
          "internalType": "uint256"
        },
        {
          "name": "pricePerBlock",
          "type": "uint256",
          "indexed": false,
          "internalType": "uint256"
        }
      ],
      "anonymous": false
    },
    {
      "type": "event",
      "name": "ShareUpdated",
      "inputs": [
        {
          "name": "shareId",
          "type": "uint256",
          "indexed": true,
          "internalType": "uint256"
        },
        {
          "name": "pricePerBlock",
          "type": "uint256",
          "indexed": false,
          "internalType": "uint256"
        },
        {
          "name": "isActive",
          "type": "bool",
          "indexed": false,
          "internalType": "bool"
        }
      ],
      "anonymous": false
    },
    {
      "type": "event",
      "name": "UserAdded",
      "inputs": [
        {
          "name": "userId",
          "type": "uint256",
          "indexed": true,
          "internalType": "uint256"
        },
        {
          "name": "wallet",
          "type": "address",
          "indexed": true,
          "internalType": "address"
        },
        {
          "name": "name",
          "type": "string",
          "indexed": false,
          "internalType": "string"
        },
        {
          "name": "description",
          "type": "string",
          "indexed": false,
          "internalType": "string"
        },
        {
          "name": "image",
          "type": "string",
          "indexed": false,
          "internalType": "string"
        }
      ],
      "anonymous": false
    },
    {
      "type": "event",
      "name": "UserUpdated",
      "inputs": [
        {
          "name": "userId",
          "type": "uint256",
          "indexed": true,
          "internalType": "uint256"
        },
        {
          "name": "name",
          "type": "string",
          "indexed": false,
          "internalType": "string"
        },
        {
          "name": "description",
          "type": "string",
          "indexed": false,
          "internalType": "string"
        },
        {
          "name": "image",
          "type": "string",
          "indexed": false,
          "internalType": "string"
        }
      ],
      "anonymous": false
    },
    {
      "type": "error",
      "name": "ApartmentNotFound",
      "inputs": []
    },
    {
      "type": "error",
      "name": "InsufficientPayment",
      "inputs": []
    },
    {
      "type": "error",
      "name": "UnauthorizedAccess",
      "inputs": []
    },
    {
      "type": "error",
      "name": "UserNotFound",
      "inputs": []
    }
  ],
  "bytecode": {
    "object": "0x608060405234801561001057600080fd5b506120d0806100206000396000f3fe60806040526004361061019c5760003560e01c80638e368c7f116100ec578063c9bf7cb11161008a578063cfb5a5f811610064578063cfb5a5f81461050d578063e9c033e51461057b578063f166801814610591578063f8c3b408146105b157600080fd5b8063c9bf7cb1146104aa578063cb0e0d7d146104ca578063cc54c279146104f757600080fd5b8063a1e6a255116100c6578063a1e6a25514610434578063b0467deb1461044a578063b0ee0e9f1461046a578063c4c6c7fb1461049757600080fd5b80638e368c7f1461037e57806395c5fed4146103f45780639b9e68f51461041457600080fd5b806356fe083c116101595780637417c79e116101335780637417c79e1461030857806374e720b6146103285780637d5d63921461033e5780637ec910691461035e57600080fd5b806356fe083c146102a6578063663e6a37146102c857806369c212f6146102db57600080fd5b8063037d9402146101a1578063039ed5011461020c57806313f0fcc2146102305780631b8feb99146102435780633f4c456c1461026357806352399ce714610279575b600080fd5b3480156101ad57600080fd5b506101c16101bc366004611973565b6105d1565b6040516102039190600060a082019050825182526020830151602083015260408301516040830152606083015160608301526080830151608083015292915050565b60405180910390f35b34801561021857600080fd5b50610222600d5481565b604051908152602001610203565b61022261023e366004611973565b610652565b34801561024f57600080fd5b5061022261025e36600461198c565b61075b565b34801561026f57600080fd5b5061022260095481565b34801561028557600080fd5b50610299610294366004611973565b610836565b60405161020391906119c4565b3480156102b257600080fd5b506102c66102c1366004611b03565b6108e9565b005b6102226102d6366004611b5c565b610990565b3480156102e757600080fd5b506102fb6102f6366004611ba4565b610c94565b6040516102039190611c0c565b34801561031457600080fd5b506102c6610323366004611c97565b610eaa565b34801561033457600080fd5b50610222600b5481565b34801561034a57600080fd5b50610222610359366004611b03565b610f5a565b34801561036a57600080fd5b50610222610379366004611ccb565b61104d565b34801561038a57600080fd5b5061039e610399366004611973565b611107565b6040516102039190600060e082019050825182526020830151602083015260408301516040830152606083015160608301526080830151608083015260a083015160a083015260c083015160c083015292915050565b34801561040057600080fd5b5061022261040f366004611ccb565b6111b4565b34801561042057600080fd5b5061039e61042f366004611973565b6111ca565b34801561044057600080fd5b5061022260005481565b34801561045657600080fd5b506102fb610465366004611973565b61126d565b34801561047657600080fd5b5061048a610485366004611973565b6112af565b6040516102039190611d49565b6102c66104a5366004611973565b61133d565b3480156104b657600080fd5b506102c66104c5366004611da5565b6113cd565b3480156104d657600080fd5b506102226104e5366004611ba4565b60026020526000908152604090205481565b34801561050357600080fd5b5061022260065481565b34801561051957600080fd5b5061052d610528366004611973565b611466565b6040516102039190600060c0820190508251825260208301516020830152604083015160408301526060830151151560608301526080830151608083015260a083015160a083015292915050565b34801561058757600080fd5b5061022260035481565b34801561059d57600080fd5b506102996105ac366004611973565b6114ff565b3480156105bd57600080fd5b506102226105cc366004611dde565b611592565b6106036040518060a0016040528060008152602001600081526020016000815260200160008152602001600081525090565b506000908152600e6020908152604091829020825160a0810184528154815260018201549281019290925260028101549282019290925260038201546060820152600490910154608082015290565b60008061065e83611466565b905080604001516121c06106729190611e48565b34108061068157508060600151155b1561069f5760405163cd1c886760e01b815260040160405180910390fd5b60006106aa3361174a565b9050600d600081546106bb90611e5f565b91829055506040805160a0810182528381526020808201888152348385018181524360608601818152608087019182526000898152600e875288902096518755935160018701559051600286015591516003850155905160049093019290925591519081529194508291869183917fcc7d3c02a05d18fc6ca05a16d5fd7814e9f0ebe86945e2ba10ff277ead7ee95c910160405180910390a45050919050565b6000806107673361174a565b9050600b6000815461077890611e5f565b91829055506040805160c0810182528581526020808201858152828401898152600160608501818152436080870181815260a0880191825260008a8152600c88528990209751885594519287019290925591516002860155905160038501805460ff1916911515919091179055905160048401555160059092019190915590518681529193508291859185917f2b0e57cafaebb95cb2ebaab2330021474fdf26b549ecf41bf608b0fc63623216910160405180910390a45092915050565b61083e6118ef565b6000828152600460208181526040928390208351610100810185528154815260018201546001600160a01b039081169382019390935260028201548316948101949094526003810154821660608501528083015491821660808501529160a0840191600160a01b900460ff16908111156108ba576108ba6119ae565b60048111156108cb576108cb6119ae565b81526005820154602082015260069091015460409091015292915050565b6000838152600a6020908152604080832033845260029092529091205460018201541461092957604051631a27eac360e11b815260040160405180910390fd5b60028101805460ff1916841515179055600381016109478382611f03565b5043600582015560405184907f66d7baab5a87d249bf55556f9cdfec86652c4adf4ca54300b2e10e78d55f3864906109829086908690611fc3565b60405180910390a250505050565b60008061099c3361174a565b90506006600081546109ad90611e5f565b9182905550915060006109bf86610836565b6020810151604051636c1844c560e01b81526004810188905260248101879052919250906000906001600160a01b03831690636c1844c59060440160a060405180830381865afa158015610a17573d6000803e3d6000fd5b505050506040513d601f19601f82011682018060405250810190610a3b9190611fde565b50935050505080341015610a625760405163cd1c886760e01b815260040160405180910390fd5b604051630249b6d360e11b815233600482015260248101889052604481018790526000906001600160a01b038416906304936da6906064016020604051808303816000875af1158015610ab9573d6000803e3d6000fd5b505050506040513d601f19601f82011682018060405250810190610add919061202b565b9050600084608001516001600160a01b03163460405160006040518083038185875af1925050503d8060008114610b30576040519150601f19603f3d011682016040523d82523d6000602084013e610b35565b606091505b5050905080610b8a5760405162461bcd60e51b815260206004820152601760248201527f5061796d656e74207472616e73666572206661696c6564000000000000000000604482015260640160405180910390fd5b8660086000848152602001908152602001600020819055506040518060e001604052808781526020018381526020018a81526020018981526020018481526020014381526020014381525060076000898152602001908152602001600020600082015181600001556020820151816001015560408201518160020155606082015181600301556080820151816004015560a0820151816005015560c082015181600601559050508986887f3f5f72b1efba70cc8cf9168d83b101a8c8aa489e83ec8c530203f8f5e36cae32858d8d89604051610c7f949392919093845260208401929092526040830152606082015260800190565b60405180910390a45050505050509392505050565b610c9c611934565b6001600160a01b038083166000908152600260209081526040808320548352600180835292819020815160c0810190925280549094168152918301805492939291840191610ce990611e78565b80601f0160208091040260200160405190810160405280929190818152602001828054610d1590611e78565b8015610d625780601f10610d3757610100808354040283529160200191610d62565b820191906000526020600020905b815481529060010190602001808311610d4557829003601f168201915b50505050508152602001600282018054610d7b90611e78565b80601f0160208091040260200160405190810160405280929190818152602001828054610da790611e78565b8015610df45780601f10610dc957610100808354040283529160200191610df4565b820191906000526020600020905b815481529060010190602001808311610dd757829003601f168201915b50505050508152602001600382018054610e0d90611e78565b80601f0160208091040260200160405190810160405280929190818152602001828054610e3990611e78565b8015610e865780601f10610e5b57610100808354040283529160200191610e86565b820191906000526020600020905b815481529060010190602001808311610e6957829003601f168201915b50505050508152602001600482015481526020016005820154815250509050919050565b6000828152600460209081526040808320338452600290925290912054815414610ee757604051631a27eac360e11b815260040160405180910390fd5b818160040160146101000a81548160ff02191690836004811115610f0d57610f0d6119ae565b0217905550436006820155816004811115610f2a57610f2a6119ae565b60405184907fb5c4d196aff9cc6c3bfbd79548412516ed743fbd41c43192ab805da71871be2190600090a3505050565b600080610f663361174a565b9050600960008154610f7790611e5f565b91829055506040805160c081018252878152602080820185815288151583850190815260608401898152436080860181905260a08601526000878152600a909452949092208351815590516001820155905160028201805460ff19169115159190911790559151929450916003820190610ff19082611f03565b506080820151816004015560a082015181600501559050508085837f5f2d46f74348f89e9c880eee22796c8b27988076e63002b0594b642f6588d122878760405161103d929190611fc3565b60405180910390a4509392505050565b336000908152600260205260408120549081900361107e576040516319c29a3360e21b815260040160405180910390fd5b600081815260016020819052604090912090810161109c8682611f03565b50600281016110ab8582611f03565b50600381016110ba8482611f03565b5043600582015560405182907f1f74be70d35b855ab103de3752f72f30b47042c4382bf3cdf831ee9fe1d434b1906110f790889088908890612044565b60405180910390a2509392505050565b6111476040518060e00160405280600081526020016000815260200160008152602001600081526020016000815260200160008152602001600081525090565b5060009081526008602090815260408083205483526007825291829020825160e081018452815481526001820154928101929092526002810154928201929092526003820154606082015260048201546080820152600582015460a082015260069091015460c082015290565b60006111c2338585856117c4565b949350505050565b61120a6040518060e00160405280600081526020016000815260200160008152602001600081526020016000815260200160008152602001600081525090565b50600090815260076020908152604091829020825160e081018452815481526001820154928101929092526002810154928201929092526003820154606082015260048201546080820152600582015460a082015260069091015460c082015290565b611275611934565b600082815260016020818152604092839020835160c0810190945280546001600160a01b03168452918201805491840191610ce990611e78565b6112ea6040518060c0016040528060008152602001600081526020016000151581526020016060815260200160008152602001600081525090565b6000828152600a6020908152604091829020825160c08101845281548152600182015492810192909252600281015460ff16151592820192909252600382018054919291606084019190610e0d90611e78565b6000818152600e6020908152604080832033845260029092529091205481541461137a57604051631a27eac360e11b815260040160405180910390fd5b3481600201600082825461138e9190612087565b9091555050436004820155600281015460405183907fcb4e6822993921e6c4b371a20023f766259fabf63dd60cf0a7a25ef9b6a42a8490600090a35050565b6000838152600c6020908152604080832033845260029092529091205460018201541461140d57604051631a27eac360e11b815260040160405180910390fd5b6002810183905560038101805460ff191683151590811790915543600583015560408051858152602081019290925285917f0e1676eca79636494ef2e97d38cf7226aff40e501df1a1413c2758b9723d4d169101610982565b6114a16040518060c0016040528060008152602001600081526020016000815260200160001515815260200160008152602001600081525090565b506000908152600c6020908152604091829020825160c08101845281548152600182015492810192909252600281015492820192909252600382015460ff16151560608201526004820154608082015260059091015460a082015290565b6115076118ef565b60008281526005602090815260408083205483526004808352928190208151610100810183528154815260018201546001600160a01b039081169482019490945260028201548416928101929092526003810154831660608301528084015492831660808301529092909160a0840191600160a01b90910460ff16908111156108ba576108ba6119ae565b60008061159e3361174a565b90506003600081546115af90611e5f565b9190508190559150604051806101000160405280828152602001876001600160a01b03168152602001866001600160a01b03168152602001856001600160a01b03168152602001846001600160a01b0316815260200160026004811115611618576116186119ae565b8152436020808301829052604092830191909152600085815260048083529083902084518155918401516001830180546001600160a01b03199081166001600160a01b0393841617909155938501516002840180548616918316919091179055606085015160038401805486169183169190911790556080850151838301805495861691909216908117825560a0860151939491926001600160a81b03199092161790600160a01b9084908111156116d2576116d26119ae565b021790555060c0820151600582015560e090910151600690910155604080516001600160a01b038781168252868116602083015285811682840152915191881691839185917fbd40a4df899ccf94f436d80c28538bd51b5aafe2d546ba8c88cd87f6ae7b6dab9181900360600190a450949350505050565b6001600160a01b03811660009081526002602052604081205481036117a8576117a2826040518060200160405280600081525060405180602001604052806000815250604051806020016040528060008152506117c4565b92915050565b506001600160a01b031660009081526002602052604090205490565b600080600081546117d490611e5f565b91829055506040805160c0810182526001600160a01b038881168252602080830189815283850189905260608401889052436080850181905260a0850152600086815260019283905294909420835181546001600160a01b031916931692909217825592519394509092909182019061184d9082611f03565b50604082015160028201906118629082611f03565b50606082015160038201906118779082611f03565b506080820151600482015560a0909101516005909101556001600160a01b038516600081815260026020526040908190208390555182907f784de7740116a6bcf41c7fbd2f9d48c857e8f7907e704e3d10ba1101f3940a13906118df90889087908990612044565b60405180910390a3949350505050565b604080516101008101825260008082526020820181905291810182905260608101829052608081018290529060a0820190815260200160008152602001600081525090565b6040518060c0016040528060006001600160a01b0316815260200160608152602001606081526020016060815260200160008152602001600081525090565b60006020828403121561198557600080fd5b5035919050565b6000806040838503121561199f57600080fd5b50508035926020909101359150565b634e487b7160e01b600052602160045260246000fd5b60006101008201905082518252602083015160018060a01b038082166020850152806040860151166040850152806060860151166060850152806080860151166080850152505060a083015160058110611a2e57634e487b7160e01b600052602160045260246000fd5b8060a08401525060c083015160c083015260e083015160e083015292915050565b8015158114611a5d57600080fd5b50565b634e487b7160e01b600052604160045260246000fd5b600082601f830112611a8757600080fd5b813567ffffffffffffffff80821115611aa257611aa2611a60565b604051601f8301601f19908116603f01168101908282118183101715611aca57611aca611a60565b81604052838152866020858801011115611ae357600080fd5b836020870160208301376000602085830101528094505050505092915050565b600080600060608486031215611b1857600080fd5b833592506020840135611b2a81611a4f565b9150604084013567ffffffffffffffff811115611b4657600080fd5b611b5286828701611a76565b9150509250925092565b600080600060608486031215611b7157600080fd5b505081359360208301359350604090920135919050565b80356001600160a01b0381168114611b9f57600080fd5b919050565b600060208284031215611bb657600080fd5b611bbf82611b88565b9392505050565b6000815180845260005b81811015611bec57602081850181015186830182015201611bd0565b506000602082860101526020601f19601f83011685010191505092915050565b602080825282516001600160a01b03168282015282015160c06040830152600090611c3a60e0840182611bc6565b90506040840151601f1980858403016060860152611c588383611bc6565b9250606086015191508085840301608086015250611c768282611bc6565b915050608084015160a084015260a084015160c08401528091505092915050565b60008060408385031215611caa57600080fd5b82359150602083013560058110611cc057600080fd5b809150509250929050565b600080600060608486031215611ce057600080fd5b833567ffffffffffffffff80821115611cf857600080fd5b611d0487838801611a76565b94506020860135915080821115611d1a57600080fd5b611d2687838801611a76565b93506040860135915080821115611d3c57600080fd5b50611b5286828701611a76565b6020815281516020820152602082015160408201526040820151151560608201526000606083015160c06080840152611d8560e0840182611bc6565b9050608084015160a084015260a084015160c08401528091505092915050565b600080600060608486031215611dba57600080fd5b83359250602084013591506040840135611dd381611a4f565b809150509250925092565b60008060008060808587031215611df457600080fd5b611dfd85611b88565b9350611e0b60208601611b88565b9250611e1960408601611b88565b9150611e2760608601611b88565b905092959194509250565b634e487b7160e01b600052601160045260246000fd5b80820281158282048414176117a2576117a2611e32565b600060018201611e7157611e71611e32565b5060010190565b600181811c90821680611e8c57607f821691505b602082108103611eac57634e487b7160e01b600052602260045260246000fd5b50919050565b601f821115611efe576000816000526020600020601f850160051c81016020861015611edb5750805b601f850160051c820191505b81811015611efa57828155600101611ee7565b5050505b505050565b815167ffffffffffffffff811115611f1d57611f1d611a60565b611f3181611f2b8454611e78565b84611eb2565b602080601f831160018114611f665760008415611f4e5750858301515b600019600386901b1c1916600185901b178555611efa565b600085815260208120601f198616915b82811015611f9557888601518255948401946001909101908401611f76565b5085821015611fb35787850151600019600388901b60f8161c191681555b5050505050600190811b01905550565b82151581526040602082015260006111c26040830184611bc6565b600080600080600060a08688031215611ff657600080fd5b85519450602086015193506040860151925060608601519150608086015161201d81611a4f565b809150509295509295909350565b60006020828403121561203d57600080fd5b5051919050565b6060815260006120576060830186611bc6565b82810360208401526120698186611bc6565b9050828103604084015261207d8185611bc6565b9695505050505050565b808201808211156117a2576117a2611e3256fea264697066735822122095b1bd9de753cf99e7e9ad3104970c17f64fca0f9287000d01e0d806af1361a964736f6c63430008180033",
    "linkReferences": {}
  },
  "methodIdentifiers": {
    "addApart(uint256,uint256,uint256)": "663e6a37",
    "addCondo(address,address,address,address)": "f8c3b408",
    "addRating(uint256,bool,string)": "7d5d6392",
    "addRent(uint256)": "13f0fcc2",
    "addShare(uint256,uint256)": "1b8feb99",
    "addUser(string,string,string)": "95c5fed4",
    "addressToId(address)": "cb0e0d7d",
    "getApart(uint256)": "9b9e68f5",
    "getApartByToken(uint256)": "8e368c7f",
    "getCondo(uint256)": "52399ce7",
    "getCondoByToken(uint256)": "f1668018",
    "getRating(uint256)": "b0ee0e9f",
    "getRent(uint256)": "037d9402",
    "getShare(uint256)": "cfb5a5f8",
    "getUser(uint256)": "b0467deb",
    "getUserByAddress(address)": "69c212f6",
    "nextApartId()": "cc54c279",
    "nextCondoId()": "e9c033e5",
    "nextRatingId()": "3f4c456c",
    "nextRentId()": "039ed501",
    "nextShareId()": "74e720b6",
    "nextUserId()": "a1e6a255",
    "updCondo(uint256,uint8)": "7417c79e",
    "updRating(uint256,bool,string)": "56fe083c",
    "updRent(uint256)": "c4c6c7fb",
    "updShare(uint256,uint256,bool)": "c9bf7cb1",
    "updUser(string,string,string)": "7ec91069"
  },
  "id": 0
}